{
  "contractName": "RockPaperScissors",
  "abi": [
    {
      "constant": true,
      "inputs": [
        {
          "name": "",
          "type": "uint256"
        }
      ],
      "name": "games",
      "outputs": [
        {
          "name": "status",
          "type": "uint8"
        },
        {
          "name": "winner",
          "type": "address"
        },
        {
          "name": "player1",
          "type": "address"
        },
        {
          "name": "player2",
          "type": "address"
        },
        {
          "name": "player1Move",
          "type": "bytes"
        },
        {
          "name": "player2Move",
          "type": "bytes"
        },
        {
          "name": "bet",
          "type": "uint256"
        }
      ],
      "payable": false,
      "stateMutability": "view",
      "type": "function",
      "signature": "0x117a5b90"
    },
    {
      "constant": true,
      "inputs": [
        {
          "name": "",
          "type": "address"
        }
      ],
      "name": "earnings",
      "outputs": [
        {
          "name": "",
          "type": "int256"
        }
      ],
      "payable": false,
      "stateMutability": "view",
      "type": "function",
      "signature": "0x543fd313"
    },
    {
      "constant": true,
      "inputs": [],
      "name": "owner",
      "outputs": [
        {
          "name": "",
          "type": "address"
        }
      ],
      "payable": false,
      "stateMutability": "view",
      "type": "function",
      "signature": "0x8da5cb5b"
    },
    {
      "constant": true,
      "inputs": [],
      "name": "enigma",
      "outputs": [
        {
          "name": "",
          "type": "address"
        }
      ],
      "payable": false,
      "stateMutability": "view",
      "type": "function",
      "signature": "0xb24fd5c5"
    },
    {
      "constant": true,
      "inputs": [
        {
          "name": "",
          "type": "uint256"
        }
      ],
      "name": "openGames",
      "outputs": [
        {
          "name": "",
          "type": "uint256"
        }
      ],
      "payable": false,
      "stateMutability": "view",
      "type": "function",
      "signature": "0xfd22a6cf"
    },
    {
      "inputs": [
        {
          "name": "_enigmaAddress",
          "type": "address"
        }
      ],
      "payable": false,
      "stateMutability": "nonpayable",
      "type": "constructor",
      "signature": "constructor"
    },
    {
      "anonymous": false,
      "inputs": [
        {
          "indexed": true,
          "name": "gameID",
          "type": "uint256"
        },
        {
          "indexed": true,
          "name": "winner",
          "type": "address"
        }
      ],
      "name": "Winner",
      "type": "event",
      "signature": "0x6b5936f5be80114e7a91daf84ba4886ece975aaffac48c9609cfa022d74a8a7d"
    },
    {
      "anonymous": false,
      "inputs": [
        {
          "indexed": true,
          "name": "gameID",
          "type": "uint256"
        },
        {
          "indexed": true,
          "name": "player1",
          "type": "address"
        },
        {
          "indexed": true,
          "name": "bet",
          "type": "uint256"
        }
      ],
      "name": "NewGame",
      "type": "event",
      "signature": "0x5292556e90822a7fc94f35a5a9ddf041b63df40f0eb7682483871615c02bb5ad"
    },
    {
      "anonymous": false,
      "inputs": [
        {
          "indexed": true,
          "name": "gameID",
          "type": "uint256"
        },
        {
          "indexed": true,
          "name": "player",
          "type": "address"
        }
      ],
      "name": "Participant",
      "type": "event",
      "signature": "0x05c2ae155a18cb3a23171b820cef06991c36d6f3ce0535477900caf09c9b16fd"
    },
    {
      "anonymous": false,
      "inputs": [
        {
          "indexed": true,
          "name": "gameID",
          "type": "uint256"
        },
        {
          "indexed": true,
          "name": "player",
          "type": "address"
        },
        {
          "indexed": true,
          "name": "amount",
          "type": "uint256"
        }
      ],
      "name": "Withdraw",
      "type": "event",
      "signature": "0x9da6493a92039daf47d1f2d7a782299c5994c6323eb1e972f69c432089ec52bf"
    },
    {
      "constant": false,
      "inputs": [
        {
          "name": "_move",
          "type": "bytes"
        }
      ],
      "name": "newGame",
      "outputs": [],
      "payable": true,
      "stateMutability": "payable",
      "type": "function",
      "signature": "0xb8843798"
    },
    {
      "constant": false,
      "inputs": [
        {
          "name": "_gameID",
          "type": "uint256"
        },
        {
          "name": "_move",
          "type": "bytes"
        }
      ],
      "name": "joinGame",
      "outputs": [],
      "payable": true,
      "stateMutability": "payable",
      "type": "function",
      "signature": "0x47a28618"
    },
    {
      "constant": false,
      "inputs": [
        {
          "name": "_gameID",
          "type": "uint256"
        }
      ],
      "name": "withdraw",
      "outputs": [],
      "payable": false,
      "stateMutability": "nonpayable",
      "type": "function",
      "signature": "0x2e1a7d4d"
    },
    {
      "constant": true,
      "inputs": [
        {
          "name": "_gameID",
          "type": "uint256"
        },
        {
          "name": "_players",
          "type": "address[]"
        },
        {
          "name": "_move1",
          "type": "string"
        },
        {
          "name": "_move2",
          "type": "string"
        }
      ],
      "name": "calculateWinner",
      "outputs": [
        {
          "name": "",
          "type": "uint256"
        },
        {
          "name": "",
          "type": "address"
        }
      ],
      "payable": false,
      "stateMutability": "pure",
      "type": "function",
      "signature": "0x30d30360"
    },
    {
      "constant": false,
      "inputs": [
        {
          "name": "_gameID",
          "type": "uint256"
        },
        {
          "name": "_address",
          "type": "address"
        }
      ],
      "name": "setWinner",
      "outputs": [],
      "payable": false,
      "stateMutability": "nonpayable",
      "type": "function",
      "signature": "0x9c623683"
    },
    {
      "constant": true,
      "inputs": [
        {
          "name": "_gameID",
          "type": "uint256"
        }
      ],
      "name": "getGame",
      "outputs": [
        {
          "name": "",
          "type": "uint8"
        },
        {
          "name": "",
          "type": "address"
        },
        {
          "name": "",
          "type": "address"
        },
        {
          "name": "",
          "type": "bytes"
        },
        {
          "name": "",
          "type": "bytes"
        },
        {
          "name": "",
          "type": "uint256"
        }
      ],
      "payable": false,
      "stateMutability": "view",
      "type": "function",
      "signature": "0xa2f77bcc"
    },
    {
      "constant": true,
      "inputs": [
        {
          "name": "_gameID",
          "type": "uint256"
        }
      ],
      "name": "getWinner",
      "outputs": [
        {
          "name": "",
          "type": "address"
        }
      ],
      "payable": false,
      "stateMutability": "view",
      "type": "function",
      "signature": "0x4129b2c9"
    },
    {
      "constant": true,
      "inputs": [
        {
          "name": "_gameID",
          "type": "uint256"
        }
      ],
      "name": "getStatus",
      "outputs": [
        {
          "name": "",
          "type": "uint8"
        }
      ],
      "payable": false,
      "stateMutability": "view",
      "type": "function",
      "signature": "0x5c622a0e"
    },
    {
      "constant": true,
      "inputs": [
        {
          "name": "_address",
          "type": "address"
        }
      ],
      "name": "getEarnings",
      "outputs": [
        {
          "name": "",
          "type": "int256"
        }
      ],
      "payable": false,
      "stateMutability": "view",
      "type": "function",
      "signature": "0x131b9c04"
    }
  ],
  "bytecode": "0x608060405234801561001057600080fd5b5060405160208061139b833981016040525160008054600160a060020a03199081163317825560018054600160a060020a039094169390911692909217909155600555611339806100626000396000f3006080604052600436106100cf5763ffffffff7c0100000000000000000000000000000000000000000000000000000000600035041663117a5b9081146100d4578063131b9c04146102295780632e1a7d4d1461025c57806330d30360146102765780634129b2c91461036d57806347a28618146103a1578063543fd313146103b85780635c622a0e146103d95780638da5cb5b146104075780639c6236831461041c578063a2f77bcc14610440578063b24fd5c51461057c578063b884379814610591578063fd22a6cf146105a4575b600080fd5b3480156100e057600080fd5b506100ec6004356105bc565b604051808860ff1660ff16815260200187600160a060020a0316600160a060020a0316815260200186600160a060020a0316600160a060020a0316815260200185600160a060020a0316600160a060020a031681526020018060200180602001848152602001838103835286818151815260200191508051906020019080838360005b8381101561018757818101518382015260200161016f565b50505050905090810190601f1680156101b45780820380516001836020036101000a031916815260200191505b50838103825285518152855160209182019187019080838360005b838110156101e75781810151838201526020016101cf565b50505050905090810190601f1680156102145780820380516001836020036101000a031916815260200191505b50995050505050505050505060405180910390f35b34801561023557600080fd5b5061024a600160a060020a036004351661071a565b60408051918252519081900360200190f35b34801561026857600080fd5b50610274600435610735565b005b34801561028257600080fd5b5060408051602060046024803582810135848102808701860190975280865261034c9684359636966044959194909101929182918501908490808284375050604080516020601f89358b018035918201839004830284018301909452808352979a99988101979196509182019450925082915084018382808284375050604080516020601f89358b018035918201839004830284018301909452808352979a99988101979196509182019450925082915084018382808284375094975061099b9650505050505050565b60408051928352600160a060020a0390911660208301528051918290030190f35b34801561037957600080fd5b50610385600435610e1f565b60408051600160a060020a039092168252519081900360200190f35b610274600480359060248035908101910135610e3f565b3480156103c457600080fd5b5061024a600160a060020a0360043516610f62565b3480156103e557600080fd5b506103f1600435610f74565b6040805160ff9092168252519081900360200190f35b34801561041357600080fd5b50610385610f89565b34801561042857600080fd5b50610274600435600160a060020a0360243516610f98565b34801561044c57600080fd5b50610458600435611025565b604051808760ff1660ff16815260200186600160a060020a0316600160a060020a0316815260200185600160a060020a0316600160a060020a031681526020018060200180602001848152602001838103835286818151815260200191508051906020019080838360005b838110156104db5781810151838201526020016104c3565b50505050905090810190601f1680156105085780820380516001836020036101000a031916815260200191505b50838103825285518152855160209182019187019080838360005b8381101561053b578181015183820152602001610523565b50505050905090810190601f1680156105685780820380516001836020036101000a031916815260200191505b509850505050505050505060405180910390f35b34801561058857600080fd5b5061038561119e565b61027460048035602481019101356111ad565b3480156105b057600080fd5b5061024a600435611253565b60026020818152600092835260409283902080546001808301548386015460038501805489516101009582161586026000190190911698909804601f810188900488028901880190995288885260ff85169893909404600160a060020a0390811697928116969116949391929083018282801561067a5780601f1061064f5761010080835404028352916020019161067a565b820191906000526020600020905b81548152906001019060200180831161065d57829003601f168201915b5050505060048301805460408051602060026001851615610100026000190190941693909304601f810184900484028201840190925281815294959493509083018282801561070a5780601f106106df5761010080835404028352916020019161070a565b820191906000526020600020905b8154815290600101906020018083116106ed57829003601f168201915b5050505050908060050154905087565b600160a060020a031660009081526003602052604090205490565b600081815260026020819052604082205460ff161461075357600080fd5b6000828152600260205260409020805460ff1916600317908190556101009004600160a060020a031615156108e4575060008181526002602081815260408084206005810154600182018054600160a060020a039081168852600386528488208054840190559286015483168752838720805483019055878752949093529254905191939216916108fc841502918491818181858888f19350505050158015610800573d6000803e3d6000fd5b506000828152600260205260408082206001015490518392600160a060020a039092169185917f9da6493a92039daf47d1f2d7a782299c5994c6323eb1e972f69c432089ec52bf9190a46000828152600260208190526040808320909101549051600160a060020a039091169183156108fc02918491818181858888f19350505050158015610893573d6000803e3d6000fd5b5060008281526002602081905260408083209091015490518392600160a060020a039092169185917f9da6493a92039daf47d1f2d7a782299c5994c6323eb1e972f69c432089ec52bf9190a4610997565b6000828152600260205260409020546101009004600160a060020a0316331461090c57600080fd5b50600081815260026020818152604080842060050154338086526003909352818520805491909402908101909355519192909183156108fc0291849190818181858888f19350505050158015610966573d6000803e3d6000fd5b506040518190339084907f9da6493a92039daf47d1f2d7a782299c5994c6323eb1e972f69c432089ec52bf90600090a45b5050565b6000806000806000806000808a5160021415156109b757600080fd5b896040516020018080602001828103825283818151815260200191508051906020019080838360005b838110156109f85781810151838201526020016109e0565b50505050905090810190601f168015610a255780820380516001836020036101000a031916815260200191505b50925050506040516020818303038152906040526040518082805190602001908083835b60208310610a685780518252601f199092019160209182019101610a49565b6001836020036101000a03801982511681845116808217855250505050505090500191505060405180910390209450886040516020018080602001828103825283818151815260200191508051906020019080838360005b83811015610ad8578181015183820152602001610ac0565b50505050905090810190601f168015610b055780820380516001836020036101000a031916815260200191505b50925050506040516020818303038152906040526040518082805190602001908083835b60208310610b485780518252601f199092019160209182019101610b29565b51815160209384036101000a6000190180199092169116179052604080519290940182900382208282018290526004838601527f726f636b00000000000000000000000000000000000000000000000000000000606080850191909152855180850390910181526080909301948590528251909a509195509293508392850191508083835b60208310610bec5780518252601f199092019160209182019101610bcd565b51815160209384036101000a6000190180199092169116179052604080519290940182900382208282018290526005838601527f70617065720000000000000000000000000000000000000000000000000000006060808501919091528551808503909101815260809093019485905282519099509195509293508392850191508083835b60208310610c905780518252601f199092019160209182019101610c71565b51815160209384036101000a6000190180199092169116179052604080519290940182900382208282018290526008838601527f73636973736f72730000000000000000000000000000000000000000000000006060808501919091528551808503909101815260809093019485905282519098509195509293508392850191508083835b60208310610d345780518252601f199092019160209182019101610d15565b5181516020939093036101000a600019018019909116921691909117905260405192018290039091209350505083861490508015610d7157508381145b80610d8557508482148015610d8557508383145b80610d9957508481148015610d9957508382145b15610dbe578a6000815181101515610dad57fe5b906020019060200201519550610e0d565b8483148015610dcc57508382145b80610de057508482148015610de057508381145b80610df457508481148015610df457508383145b15610e08578a6001815181101515610dad57fe5b600095505b50999a93995092975050505050505050565b6000908152600260205260409020546101009004600160a060020a031690565b60008381526002602081905260409091200154600160a060020a031615610e6557600080fd5b6000838152600260205260409020600501543414610e8257600080fd5b6000838152600260208190526040909120908101805473ffffffffffffffffffffffffffffffffffffffff191633179055610ec1906004018383611272565b506000838152600260208181526040808420805460ff1916600190811782553386526003845282862080543490039055888652939092529101549051600160a060020a03919091169185917f05c2ae155a18cb3a23171b820cef06991c36d6f3ce0535477900caf09c9b16fd9190a3604051339084907f05c2ae155a18cb3a23171b820cef06991c36d6f3ce0535477900caf09c9b16fd90600090a3505050565b60036020526000908152604090205481565b60009081526002602052604090205460ff1690565b600054600160a060020a031681565b600154600160a060020a03163314610faf57600080fd5b6000828152600260208190526040808320805460ff191690921774ffffffffffffffffffffffffffffffffffffffff001916610100600160a060020a0386169081029190911790925551909184917f6b5936f5be80114e7a91daf84ba4886ece975aaffac48c9609cfa022d74a8a7d9190a35050565b6000818152600260208181526040808420805460018083015483870154600585015460038601805488516101009682161596909602600019011699909904601f81018990048902850189019097528684528998899860609889988b9860ff1697600160a060020a03978816979096169593946004909101939092909185918301828280156110f45780601f106110c9576101008083540402835291602001916110f4565b820191906000526020600020905b8154815290600101906020018083116110d757829003601f168201915b5050855460408051602060026001851615610100026000190190941693909304601f8101849004840282018401909252818152959850879450925084019050828280156111825780601f1061115757610100808354040283529160200191611182565b820191906000526020600020905b81548152906001019060200180831161116557829003601f168201915b5050505050915095509550955095509550955091939550919395565b600154600160a060020a031681565b6005805460018082019092556000818152600260205260409020918201805473ffffffffffffffffffffffffffffffffffffffff191633179055906111f6906003018484611272565b506000818152600260209081526040808320346005909101819055338085526003909352818420805482900390559051909284917f5292556e90822a7fc94f35a5a9ddf041b63df40f0eb7682483871615c02bb5ad9190a4505050565b600480548290811061126157fe5b600091825260209091200154905081565b828054600181600116156101000203166002900490600052602060002090601f016020900481019282601f106112b35782800160ff198235161785556112e0565b828001600101855582156112e0579182015b828111156112e05782358255916020019190600101906112c5565b506112ec9291506112f0565b5090565b61130a91905b808211156112ec57600081556001016112f6565b905600a165627a7a72305820d876c0a08693860a9a72a18b420061d7ba08f17309a04f351f585a69ac39044e0029",
  "source": "pragma solidity 0.4.24;\n\ncontract RockPaperScissors {\n  address public owner;\n  address public enigma;\n\n  struct Game {\n    uint8 status;\n    address winner;\n    address player1;\n    address player2;\n    bytes player1Move;\n    bytes player2Move;\n    uint256 bet;\n  }\n\n  //mapping(bytes32 => uint8) public results;\n  mapping(uint256 => Game) public games;\n  mapping(address => int256) public earnings;\n  uint256[] public openGames;\n  uint256 gameCount;\n\n  // Constructor called when new contract is deployed\n  constructor(address _enigmaAddress) public {\n    owner = msg.sender;\n    enigma = _enigmaAddress;\n    gameCount = 0;\n  }\n\n  //Create new game, pass bet and encrypted move\n  function newGame(bytes _move)\n  payable\n  external {\n    uint256 gameID = gameCount;\n    gameCount += 1;\n    games[gameID].player1 = msg.sender;\n    games[gameID].player1Move = _move;\n    games[gameID].bet = msg.value;\n    earnings[msg.sender] -= int256(msg.value);\n    emit NewGame(gameID, msg.sender, msg.value);\n  }\n\n  //Join an open game\n  function joinGame(uint256 _gameID, bytes _move)\n  payable\n  external {\n    require(games[_gameID].player2 == address(0));\n    require(games[_gameID].bet == msg.value);\n    games[_gameID].player2 = msg.sender;\n    games[_gameID].player2Move = _move;\n    games[_gameID].status = 1;\n    earnings[msg.sender] -= int256(msg.value);\n    emit Participant(_gameID, games[_gameID].player1);\n    emit Participant(_gameID, msg.sender);\n  }\n\n  //Withdraw winnings\n  function withdraw(uint256 _gameID)\n  external{\n    require(games[_gameID].status == 2);\n    games[_gameID].status = 3;\n    uint winnings;\n    if(games[_gameID].winner == address(0)){\n      winnings = games[_gameID].bet; //Since no winner, return bets\n      earnings[games[_gameID].player1] += int256(winnings);\n      earnings[games[_gameID].player2] += int256(winnings);\n      games[_gameID].player1.transfer(winnings);\n      emit Withdraw(_gameID, games[_gameID].player1, winnings);\n      games[_gameID].player2.transfer(winnings);\n      emit Withdraw(_gameID, games[_gameID].player2, winnings);\n    } else {\n      require(games[_gameID].winner == msg.sender);\n      winnings = games[_gameID].bet*2; //Return the bet amount from both users\n      earnings[msg.sender] += int256(winnings);\n      msg.sender.transfer(winnings);\n      emit Withdraw(_gameID, msg.sender, winnings);\n    }\n  }\n\n  //Callable  function\n  function calculateWinner(uint256 _gameID, address[] _players, string _move1, string _move2)\n  public\n  pure\n  returns(uint256, address){\n    require(_players.length == 2);\n    address winner;\n    bytes32 move1 = keccak256(abi.encode(_move1));\n    bytes32 move2 = keccak256(abi.encode(_move2));\n    bytes32 rock = keccak256(abi.encode('rock'));\n    bytes32 paper =  keccak256(abi.encode('paper'));\n    bytes32 scissors = keccak256(abi.encode('scissors'));\n\n    if(\n      (move1 == rock && move2 == scissors) ||\n      (move1 == paper && move2 == rock) ||\n      (move1 == scissors && move2 == paper)\n    ){\n      winner = _players[0];\n    }else if(\n      (move1 == rock && move2 == paper) ||\n      (move1 == paper && move2 == scissors) ||\n      (move1 == scissors && move2 == rock)\n    ){\n      winner = _players[1];\n    }else{\n      winner = address(0);\n    }\n    return (_gameID, winner);\n  }\n\n  //Callback function\n  function setWinner(uint256 _gameID, address _address) public onlyEnigma() {\n    games[_gameID].status = 2;\n    games[_gameID].winner = _address;\n    emit Winner(_gameID, _address);\n  }\n\n  function getGame(uint256 _gameID)\n  external\n  view\n  returns(uint8, address, address, bytes, bytes, uint256){\n    return (games[_gameID].status,\n            games[_gameID].player1,\n            games[_gameID].player2,\n            games[_gameID].player1Move,\n            games[_gameID].player2Move,\n            games[_gameID].bet);\n  }\n\n  function getWinner(uint256 _gameID)\n  external\n  view\n  returns(address){\n    return games[_gameID].winner;\n  }\n\n  function getStatus(uint256 _gameID)\n  external\n  view\n  returns(uint8){\n    return games[_gameID].status;\n  }\n\n  function getEarnings(address _address)\n  external\n  view\n  returns(int256){\n    return earnings[_address];\n  }\n\n  // Modifier to ensure only enigma contract can call function\n  modifier onlyEnigma() {\n    require(msg.sender == enigma);\n    _;\n  }\n\n  // Event emitted upon callback completion; watched from front end\n  event Winner(uint256 indexed gameID, address indexed winner);\n  event NewGame(uint256 indexed gameID, address indexed player1, uint256 indexed bet);\n  event Participant(uint256 indexed gameID, address indexed player);\n  event Withdraw(uint256 indexed gameID, address indexed player, uint256 indexed amount);\n}\n",
  "sourcePath": "/home/peter/Documents/Work/Enigma/Enigma-Rock-Paper-Scissors/contracts/RockPaperScissors.sol",
  "compiler": {
    "name": "solc",
    "version": "0.4.24+commit.e67f0147.Emscripten.clang"
  },
  "schemaVersion": "2.0.0",
  "updatedAt": "2019-01-12T22:42:53.888Z"
}