{
  "contractName": "RockPaperScissors",
  "abi": [
    {
      "constant": true,
      "inputs": [
        {
          "name": "",
          "type": "address"
        }
      ],
      "name": "earnings",
      "outputs": [
        {
          "name": "",
          "type": "int256"
        }
      ],
      "payable": false,
      "stateMutability": "view",
      "type": "function",
      "signature": "0x543fd313"
    },
    {
      "constant": true,
      "inputs": [],
      "name": "owner",
      "outputs": [
        {
          "name": "",
          "type": "address"
        }
      ],
      "payable": false,
      "stateMutability": "view",
      "type": "function",
      "signature": "0x8da5cb5b"
    },
    {
      "constant": true,
      "inputs": [],
      "name": "enigma",
      "outputs": [
        {
          "name": "",
          "type": "address"
        }
      ],
      "payable": false,
      "stateMutability": "view",
      "type": "function",
      "signature": "0xb24fd5c5"
    },
    {
      "constant": true,
      "inputs": [
        {
          "name": "",
          "type": "bytes32"
        }
      ],
      "name": "games",
      "outputs": [
        {
          "name": "status",
          "type": "uint8"
        },
        {
          "name": "winner",
          "type": "address"
        },
        {
          "name": "player1",
          "type": "address"
        },
        {
          "name": "player2",
          "type": "address"
        },
        {
          "name": "player1Move",
          "type": "bytes"
        },
        {
          "name": "player2Move",
          "type": "bytes"
        },
        {
          "name": "bet",
          "type": "uint256"
        }
      ],
      "payable": false,
      "stateMutability": "view",
      "type": "function",
      "signature": "0xf579f882"
    },
    {
      "constant": true,
      "inputs": [
        {
          "name": "",
          "type": "uint256"
        }
      ],
      "name": "openGames",
      "outputs": [
        {
          "name": "",
          "type": "bytes32"
        }
      ],
      "payable": false,
      "stateMutability": "view",
      "type": "function",
      "signature": "0xfd22a6cf"
    },
    {
      "inputs": [
        {
          "name": "_enigmaAddress",
          "type": "address"
        }
      ],
      "payable": false,
      "stateMutability": "nonpayable",
      "type": "constructor",
      "signature": "constructor"
    },
    {
      "anonymous": false,
      "inputs": [
        {
          "indexed": true,
          "name": "gameID",
          "type": "bytes32"
        },
        {
          "indexed": true,
          "name": "winner",
          "type": "address"
        }
      ],
      "name": "Winner",
      "type": "event",
      "signature": "0x356820a8ffb2e87f807efe30f3a77937f6273fa64c46730bdd8653974f3ecb37"
    },
    {
      "anonymous": false,
      "inputs": [
        {
          "indexed": true,
          "name": "gameID",
          "type": "bytes32"
        },
        {
          "indexed": true,
          "name": "player1",
          "type": "address"
        },
        {
          "indexed": true,
          "name": "bet",
          "type": "uint256"
        }
      ],
      "name": "NewGame",
      "type": "event",
      "signature": "0x4126b7370effe88fef27c6093280d30b5465f0deb4d54f94aaf0231be0913705"
    },
    {
      "anonymous": false,
      "inputs": [
        {
          "indexed": true,
          "name": "gameID",
          "type": "bytes32"
        },
        {
          "indexed": true,
          "name": "player2",
          "type": "address"
        }
      ],
      "name": "JoinGame",
      "type": "event",
      "signature": "0xddb469e4e3fcb97a6175a4e5340a8b23c469a3fcf8c228bd13c6cc4df7e45b16"
    },
    {
      "constant": false,
      "inputs": [
        {
          "name": "_move",
          "type": "bytes"
        }
      ],
      "name": "newGame",
      "outputs": [],
      "payable": true,
      "stateMutability": "payable",
      "type": "function",
      "signature": "0xb8843798"
    },
    {
      "constant": false,
      "inputs": [
        {
          "name": "_gameID",
          "type": "bytes32"
        },
        {
          "name": "_move",
          "type": "bytes"
        }
      ],
      "name": "joinGame",
      "outputs": [],
      "payable": true,
      "stateMutability": "payable",
      "type": "function",
      "signature": "0x69cc802c"
    },
    {
      "constant": false,
      "inputs": [
        {
          "name": "_gameID",
          "type": "bytes32"
        }
      ],
      "name": "withdraw",
      "outputs": [],
      "payable": false,
      "stateMutability": "nonpayable",
      "type": "function",
      "signature": "0x8e19899e"
    },
    {
      "constant": true,
      "inputs": [
        {
          "name": "_gameID",
          "type": "bytes32"
        },
        {
          "name": "_players",
          "type": "address[]"
        },
        {
          "name": "_move1",
          "type": "string"
        },
        {
          "name": "_move2",
          "type": "string"
        }
      ],
      "name": "calculateWinner",
      "outputs": [
        {
          "name": "",
          "type": "bytes32"
        },
        {
          "name": "",
          "type": "address"
        }
      ],
      "payable": false,
      "stateMutability": "pure",
      "type": "function",
      "signature": "0x2c209bb0"
    },
    {
      "constant": false,
      "inputs": [
        {
          "name": "_gameID",
          "type": "bytes32"
        },
        {
          "name": "_address",
          "type": "address"
        }
      ],
      "name": "setWinner",
      "outputs": [],
      "payable": false,
      "stateMutability": "nonpayable",
      "type": "function",
      "signature": "0xa553c33b"
    },
    {
      "constant": true,
      "inputs": [
        {
          "name": "_gameID",
          "type": "bytes32"
        }
      ],
      "name": "getGame",
      "outputs": [
        {
          "name": "",
          "type": "uint8"
        },
        {
          "name": "",
          "type": "address"
        },
        {
          "name": "",
          "type": "address"
        },
        {
          "name": "",
          "type": "bytes"
        },
        {
          "name": "",
          "type": "bytes"
        },
        {
          "name": "",
          "type": "uint256"
        }
      ],
      "payable": false,
      "stateMutability": "view",
      "type": "function",
      "signature": "0x73931bbf"
    },
    {
      "constant": true,
      "inputs": [
        {
          "name": "_gameID",
          "type": "bytes32"
        }
      ],
      "name": "getWinner",
      "outputs": [
        {
          "name": "",
          "type": "address"
        }
      ],
      "payable": false,
      "stateMutability": "view",
      "type": "function",
      "signature": "0x1e5f9149"
    },
    {
      "constant": true,
      "inputs": [
        {
          "name": "_gameID",
          "type": "bytes32"
        }
      ],
      "name": "getStatus",
      "outputs": [
        {
          "name": "",
          "type": "uint8"
        }
      ],
      "payable": false,
      "stateMutability": "view",
      "type": "function",
      "signature": "0x5de28ae0"
    },
    {
      "constant": true,
      "inputs": [
        {
          "name": "_address",
          "type": "address"
        }
      ],
      "name": "getEarnings",
      "outputs": [
        {
          "name": "",
          "type": "int256"
        }
      ],
      "payable": false,
      "stateMutability": "view",
      "type": "function",
      "signature": "0x131b9c04"
    }
  ],
  "bytecode": "0x608060405234801561001057600080fd5b50604051602080611338833981016040525160008054600160a060020a0319908116331790915560018054600160a060020a03909316929091169190911790556112d98061005f6000396000f3006080604052600436106100cf5763ffffffff7c0100000000000000000000000000000000000000000000000000000000600035041663131b9c0481146100d45780631e5f9149146101075780632c209bb01461013b578063543fd313146102325780635de28ae01461025357806369cc802c1461028157806373931bbf1461029a5780638da5cb5b146103d65780638e19899e146103eb578063a553c33b14610403578063b24fd5c514610427578063b88437981461043c578063f579f8821461044f578063fd22a6cf146105a4575b600080fd5b3480156100e057600080fd5b506100f5600160a060020a03600435166105bc565b60408051918252519081900360200190f35b34801561011357600080fd5b5061011f6004356105d7565b60408051600160a060020a039092168252519081900360200190f35b34801561014757600080fd5b506040805160206004602480358281013584810280870186019097528086526102119684359636966044959194909101929182918501908490808284375050604080516020601f89358b018035918201839004830284018301909452808352979a99988101979196509182019450925082915084018382808284375050604080516020601f89358b018035918201839004830284018301909452808352979a9998810197919650918201945092508291508401838280828437509497506105f79650505050505050565b60408051928352600160a060020a0390911660208301528051918290030190f35b34801561023e57600080fd5b506100f5600160a060020a0360043516610a7b565b34801561025f57600080fd5b5061026b600435610a8d565b6040805160ff9092168252519081900360200190f35b610298600480359060248035908101910135610aa2565b005b3480156102a657600080fd5b506102b2600435610b82565b604051808760ff1660ff16815260200186600160a060020a0316600160a060020a0316815260200185600160a060020a0316600160a060020a031681526020018060200180602001848152602001838103835286818151815260200191508051906020019080838360005b8381101561033557818101518382015260200161031d565b50505050905090810190601f1680156103625780820380516001836020036101000a031916815260200191505b50838103825285518152855160209182019187019080838360005b8381101561039557818101518382015260200161037d565b50505050905090810190601f1680156103c25780820380516001836020036101000a031916815260200191505b509850505050505050505060405180910390f35b3480156103e257600080fd5b5061011f610cfc565b3480156103f757600080fd5b50610298600435610d0b565b34801561040f57600080fd5b50610298600435600160a060020a0360243516610eae565b34801561043357600080fd5b5061011f610f3b565b6102986004803560248101910135610f4a565b34801561045b57600080fd5b50610467600435611095565b604051808860ff1660ff16815260200187600160a060020a0316600160a060020a0316815260200186600160a060020a0316600160a060020a0316815260200185600160a060020a0316600160a060020a031681526020018060200180602001848152602001838103835286818151815260200191508051906020019080838360005b838110156105025781810151838201526020016104ea565b50505050905090810190601f16801561052f5780820380516001836020036101000a031916815260200191505b50838103825285518152855160209182019187019080838360005b8381101561056257818101518382015260200161054a565b50505050905090810190601f16801561058f5780820380516001836020036101000a031916815260200191505b50995050505050505050505060405180910390f35b3480156105b057600080fd5b506100f56004356111f3565b600160a060020a031660009081526003602052604090205490565b6000908152600260205260409020546101009004600160a060020a031690565b6000806000806000806000808a51600214151561061357600080fd5b896040516020018080602001828103825283818151815260200191508051906020019080838360005b8381101561065457818101518382015260200161063c565b50505050905090810190601f1680156106815780820380516001836020036101000a031916815260200191505b50925050506040516020818303038152906040526040518082805190602001908083835b602083106106c45780518252601f1990920191602091820191016106a5565b6001836020036101000a03801982511681845116808217855250505050505090500191505060405180910390209450886040516020018080602001828103825283818151815260200191508051906020019080838360005b8381101561073457818101518382015260200161071c565b50505050905090810190601f1680156107615780820380516001836020036101000a031916815260200191505b50925050506040516020818303038152906040526040518082805190602001908083835b602083106107a45780518252601f199092019160209182019101610785565b51815160209384036101000a6000190180199092169116179052604080519290940182900382208282018290526004838601527f726f636b00000000000000000000000000000000000000000000000000000000606080850191909152855180850390910181526080909301948590528251909a509195509293508392850191508083835b602083106108485780518252601f199092019160209182019101610829565b51815160209384036101000a6000190180199092169116179052604080519290940182900382208282018290526005838601527f70617065720000000000000000000000000000000000000000000000000000006060808501919091528551808503909101815260809093019485905282519099509195509293508392850191508083835b602083106108ec5780518252601f1990920191602091820191016108cd565b51815160209384036101000a6000190180199092169116179052604080519290940182900382208282018290526008838601527f73636973736f72730000000000000000000000000000000000000000000000006060808501919091528551808503909101815260809093019485905282519098509195509293508392850191508083835b602083106109905780518252601f199092019160209182019101610971565b5181516020939093036101000a6000190180199091169216919091179052604051920182900390912093505050838614905080156109cd57508381145b806109e1575084821480156109e157508383145b806109f5575084811480156109f557508382145b15610a1a578a6000815181101515610a0957fe5b906020019060200201519550610a69565b8483148015610a2857508382145b80610a3c57508482148015610a3c57508381145b80610a5057508481148015610a5057508383145b15610a64578a6001815181101515610a0957fe5b600095505b50999a93995092975050505050505050565b60036020526000908152604090205481565b60009081526002602052604090205460ff1690565b60008381526002602081905260409091200154600160a060020a031615610ac857600080fd5b6000838152600260205260409020600501543414610ae557600080fd5b6000838152600260208190526040909120908101805473ffffffffffffffffffffffffffffffffffffffff191633179055610b24906004018383611212565b506000838152600260209081526040808320805460ff191660011790553380845260039092528083208054349003905551909185917fddb469e4e3fcb97a6175a4e5340a8b23c469a3fcf8c228bd13c6cc4df7e45b169190a3505050565b600081815260026020818152604080842080546001808301548387015460058501546003860180548851601f9682161561010002600019019091169a909a0494850189900489028a0189019097528389528998899860609889988b9860ff1697600160a060020a039788169796909616959194600490910193909290918591830182828015610c525780601f10610c2757610100808354040283529160200191610c52565b820191906000526020600020905b815481529060010190602001808311610c3557829003601f168201915b5050855460408051602060026001851615610100026000190190941693909304601f810184900484028201840190925281815295985087945092508401905082828015610ce05780601f10610cb557610100808354040283529160200191610ce0565b820191906000526020600020905b815481529060010190602001808311610cc357829003601f168201915b5050505050915095509550955095509550955091939550919395565b600054600160a060020a031681565b600081815260026020819052604082205460ff1614610d2957600080fd5b6000828152600260205260409020805460ff1916600317908190556101009004600160a060020a03161515610e26575060008181526002602081815260408084206005810154600182018054600160a060020a039081168852600386528488208054840190559286015483168752838720805483019055878752949093529254905191939216916108fc841502918491818181858888f19350505050158015610dd6573d6000803e3d6000fd5b506000828152600260208190526040808320909101549051600160a060020a039091169183156108fc02918491818181858888f19350505050158015610e20573d6000803e3d6000fd5b50610eaa565b6000828152600260205260409020546101009004600160a060020a03163314610e4e57600080fd5b50600081815260026020818152604080842060050154338086526003909352818520805491909402908101909355519192909183156108fc0291849190818181858888f19350505050158015610ea8573d6000803e3d6000fd5b505b5050565b600154600160a060020a03163314610ec557600080fd5b6000828152600260208190526040808320805460ff191690921774ffffffffffffffffffffffffffffffffffffffff001916610100600160a060020a0386169081029190911790925551909184917f356820a8ffb2e87f807efe30f3a77937f6273fa64c46730bdd8653974f3ecb379190a35050565b600154600160a060020a031681565b60003334426040516020018084600160a060020a0316600160a060020a03166c0100000000000000000000000002815260140183815260200182815260200193505050506040516020818303038152906040526040518082805190602001908083835b60208310610fcc5780518252601f199092019160209182019101610fad565b51815160001960209485036101000a01908116901991909116179052604080519490920184900390932060008181526002909452922060018101805473ffffffffffffffffffffffffffffffffffffffff19163317905591945061103893505060030190508484611212565b506000818152600260209081526040808320346005909101819055338085526003909352818420805482900390559051909284917f4126b7370effe88fef27c6093280d30b5465f0deb4d54f94aaf0231be09137059190a4505050565b60026020818152600092835260409283902080546001808301548386015460038501805489516101009582161586026000190190911698909804601f810188900488028901880190995288885260ff85169893909404600160a060020a039081169792811696911694939192908301828280156111535780601f1061112857610100808354040283529160200191611153565b820191906000526020600020905b81548152906001019060200180831161113657829003601f168201915b5050505060048301805460408051602060026001851615610100026000190190941693909304601f81018490048402820184019092528181529495949350908301828280156111e35780601f106111b8576101008083540402835291602001916111e3565b820191906000526020600020905b8154815290600101906020018083116111c657829003601f168201915b5050505050908060050154905087565b600480548290811061120157fe5b600091825260209091200154905081565b828054600181600116156101000203166002900490600052602060002090601f016020900481019282601f106112535782800160ff19823516178555611280565b82800160010185558215611280579182015b82811115611280578235825591602001919060010190611265565b5061128c929150611290565b5090565b6112aa91905b8082111561128c5760008155600101611296565b905600a165627a7a723058209ceab37f1334795c22ecf35dcb400b60279903ff9a7fb37a45116da3366e897e0029",
  "source": "pragma solidity 0.4.24;\n\ncontract RockPaperScissors {\n  address public owner;\n  address public enigma;\n\n  struct Game {\n    uint8 status;\n    address winner;\n    address player1;\n    address player2;\n    bytes player1Move;\n    bytes player2Move;\n    uint256 bet;\n  }\n\n  //mapping(bytes32 => uint8) public results;\n  mapping(bytes32 => Game) public games;\n  mapping(address => int256) public earnings;\n  bytes32[] public openGames;\n\n  // Constructor called when new contract is deployed\n  constructor(address _enigmaAddress) public {\n    owner = msg.sender;\n    enigma = _enigmaAddress;\n  }\n\n  //Create new game, pass bet and encrypted move\n  function newGame(bytes _move)\n  payable\n  external {\n    bytes32 gameID = keccak256(abi.encodePacked(msg.sender, msg.value, now));\n    games[gameID].player1 = msg.sender;\n    games[gameID].player1Move = _move;\n    games[gameID].bet = msg.value;\n    earnings[msg.sender] -= int256(msg.value);\n    emit NewGame(gameID, msg.sender, msg.value);\n  }\n\n  //Join an open game\n  function joinGame(bytes32 _gameID, bytes _move)\n  payable\n  external {\n    require(games[_gameID].player2 == address(0));\n    require(games[_gameID].bet == msg.value);\n    games[_gameID].player2 = msg.sender;\n    games[_gameID].player2Move = _move;\n    games[_gameID].status = 1;\n    earnings[msg.sender] -= int256(msg.value);\n    emit JoinGame(_gameID, msg.sender);\n  }\n\n  //Withdraw winnings\n  function withdraw(bytes32 _gameID)\n  external{\n    require(games[_gameID].status == 2);\n    games[_gameID].status = 3;\n    uint winnings;\n    if(games[_gameID].winner == address(0)){\n      winnings = games[_gameID].bet; //Since no winner, return bets\n      earnings[games[_gameID].player1] += int256(winnings);\n      earnings[games[_gameID].player2] += int256(winnings);\n      games[_gameID].player1.transfer(winnings);\n      games[_gameID].player2.transfer(winnings);\n    } else {\n      require(games[_gameID].winner == msg.sender);\n      winnings = games[_gameID].bet*2; //Return the bet amount from both users\n      earnings[msg.sender] += int256(winnings);\n      msg.sender.transfer(winnings);\n    }\n  }\n\n  //Callable  function\n  function calculateWinner(bytes32 _gameID, address[] _players, string _move1, string _move2)\n  public\n  pure\n  returns(bytes32, address){\n    require(_players.length == 2);\n    address winner;\n    bytes32 move1 = keccak256(abi.encode(_move1));\n    bytes32 move2 = keccak256(abi.encode(_move2));\n    bytes32 rock = keccak256(abi.encode('rock'));\n    bytes32 paper =  keccak256(abi.encode('paper'));\n    bytes32 scissors = keccak256(abi.encode('scissors'));\n\n    if(\n      (move1 == rock && move2 == scissors) ||\n      (move1 == paper && move2 == rock) ||\n      (move1 == scissors && move2 == paper)\n    ){\n      winner = _players[0];\n    }else if(\n      (move1 == rock && move2 == paper) ||\n      (move1 == paper && move2 == scissors) ||\n      (move1 == scissors && move2 == rock)\n    ){\n      winner = _players[1];\n    }else{\n      winner = address(0);\n    }\n    return (_gameID, winner);\n  }\n\n  //Callback function\n  function setWinner(bytes32 _gameID, address _address) public onlyEnigma() {\n    games[_gameID].status = 2;\n    games[_gameID].winner = _address;\n    emit Winner(_gameID, _address);\n  }\n\n  function getGame(bytes32 _gameID)\n  external\n  view\n  returns(uint8, address, address, bytes, bytes, uint256){\n    return (games[_gameID].status,\n            games[_gameID].player1,\n            games[_gameID].player2,\n            games[_gameID].player1Move,\n            games[_gameID].player2Move,\n            games[_gameID].bet);\n  }\n\n  function getWinner(bytes32 _gameID)\n  external\n  view\n  returns(address){\n    return games[_gameID].winner;\n  }\n\n  function getStatus(bytes32 _gameID)\n  external\n  view\n  returns(uint8){\n    return games[_gameID].status;\n  }\n\n  function getEarnings(address _address)\n  external\n  view\n  returns(int256){\n    return earnings[_address];\n  }\n\n  // Modifier to ensure only enigma contract can call function\n  modifier onlyEnigma() {\n    require(msg.sender == enigma);\n    _;\n  }\n\n  // Event emitted upon callback completion; watched from front end\n  event Winner(bytes32 indexed gameID, address indexed winner);\n  event NewGame(bytes32 indexed gameID, address indexed player1, uint256 indexed bet);\n  event JoinGame(bytes32 indexed gameID, address indexed player2);\n}\n",
  "sourcePath": "/home/peter/Documents/Work/Enigma/rps/contracts/RockPaperScissors.sol",
  "compiler": {
    "name": "solc",
    "version": "0.4.24+commit.e67f0147.Emscripten.clang"
  },
  "schemaVersion": "2.0.0",
  "updatedAt": "2018-12-17T19:46:34.555Z"
}