{
  "contractName": "RockPaperScissors",
  "abi": [
    {
      "constant": true,
      "inputs": [
        {
          "name": "",
          "type": "uint256"
        }
      ],
      "name": "games",
      "outputs": [
        {
          "name": "gameId",
          "type": "uint256"
        },
        {
          "name": "status",
          "type": "uint8"
        },
        {
          "name": "winner",
          "type": "address"
        },
        {
          "name": "player1",
          "type": "address"
        },
        {
          "name": "player2",
          "type": "address"
        },
        {
          "name": "player1Move",
          "type": "bytes"
        },
        {
          "name": "player2Move",
          "type": "bytes"
        },
        {
          "name": "bet",
          "type": "uint256"
        }
      ],
      "payable": false,
      "stateMutability": "view",
      "type": "function",
      "signature": "0x117a5b90"
    },
    {
      "constant": true,
      "inputs": [
        {
          "name": "",
          "type": "address"
        }
      ],
      "name": "earnings",
      "outputs": [
        {
          "name": "",
          "type": "int256"
        }
      ],
      "payable": false,
      "stateMutability": "view",
      "type": "function",
      "signature": "0x543fd313"
    },
    {
      "constant": true,
      "inputs": [],
      "name": "owner",
      "outputs": [
        {
          "name": "",
          "type": "address"
        }
      ],
      "payable": false,
      "stateMutability": "view",
      "type": "function",
      "signature": "0x8da5cb5b"
    },
    {
      "constant": true,
      "inputs": [],
      "name": "enigma",
      "outputs": [
        {
          "name": "",
          "type": "address"
        }
      ],
      "payable": false,
      "stateMutability": "view",
      "type": "function",
      "signature": "0xb24fd5c5"
    },
    {
      "constant": true,
      "inputs": [],
      "name": "gamesCount",
      "outputs": [
        {
          "name": "",
          "type": "uint256"
        }
      ],
      "payable": false,
      "stateMutability": "view",
      "type": "function",
      "signature": "0xfb632b7c"
    },
    {
      "constant": true,
      "inputs": [
        {
          "name": "",
          "type": "uint256"
        }
      ],
      "name": "openGames",
      "outputs": [
        {
          "name": "",
          "type": "bytes32"
        }
      ],
      "payable": false,
      "stateMutability": "view",
      "type": "function",
      "signature": "0xfd22a6cf"
    },
    {
      "inputs": [
        {
          "name": "_enigmaAddress",
          "type": "address"
        }
      ],
      "payable": false,
      "stateMutability": "nonpayable",
      "type": "constructor",
      "signature": "constructor"
    },
    {
      "anonymous": false,
      "inputs": [
        {
          "indexed": true,
          "name": "gameID",
          "type": "uint256"
        },
        {
          "indexed": true,
          "name": "winner",
          "type": "address"
        }
      ],
      "name": "Winner",
      "type": "event",
      "signature": "0x6b5936f5be80114e7a91daf84ba4886ece975aaffac48c9609cfa022d74a8a7d"
    },
    {
      "anonymous": false,
      "inputs": [
        {
          "indexed": true,
          "name": "gameID",
          "type": "uint256"
        },
        {
          "indexed": true,
          "name": "player1",
          "type": "address"
        },
        {
          "indexed": true,
          "name": "bet",
          "type": "uint256"
        }
      ],
      "name": "NewGame",
      "type": "event",
      "signature": "0x5292556e90822a7fc94f35a5a9ddf041b63df40f0eb7682483871615c02bb5ad"
    },
    {
      "anonymous": false,
      "inputs": [
        {
          "indexed": true,
          "name": "gameID",
          "type": "uint256"
        },
        {
          "indexed": true,
          "name": "player2",
          "type": "address"
        }
      ],
      "name": "JoinGame",
      "type": "event",
      "signature": "0x94a23cd53bf5ba1d2903ed9a1cd6418ae0d681ab5bbae27df124f57f70a9b627"
    },
    {
      "constant": false,
      "inputs": [
        {
          "name": "_move",
          "type": "bytes"
        }
      ],
      "name": "newGame",
      "outputs": [],
      "payable": true,
      "stateMutability": "payable",
      "type": "function",
      "signature": "0xb8843798"
    },
    {
      "constant": false,
      "inputs": [
        {
          "name": "_gameID",
          "type": "uint256"
        },
        {
          "name": "_move",
          "type": "bytes"
        }
      ],
      "name": "joinGame",
      "outputs": [],
      "payable": true,
      "stateMutability": "payable",
      "type": "function",
      "signature": "0x47a28618"
    },
    {
      "constant": false,
      "inputs": [
        {
          "name": "_gameID",
          "type": "uint256"
        }
      ],
      "name": "withdraw",
      "outputs": [],
      "payable": false,
      "stateMutability": "nonpayable",
      "type": "function",
      "signature": "0x2e1a7d4d"
    },
    {
      "constant": true,
      "inputs": [
        {
          "name": "_gameID",
          "type": "uint256"
        },
        {
          "name": "_players",
          "type": "address[]"
        },
        {
          "name": "_move1",
          "type": "string"
        },
        {
          "name": "_move2",
          "type": "string"
        }
      ],
      "name": "calculateWinner",
      "outputs": [
        {
          "name": "",
          "type": "uint256"
        },
        {
          "name": "",
          "type": "address"
        }
      ],
      "payable": false,
      "stateMutability": "pure",
      "type": "function",
      "signature": "0x30d30360"
    },
    {
      "constant": false,
      "inputs": [
        {
          "name": "_gameID",
          "type": "uint256"
        },
        {
          "name": "_address",
          "type": "address"
        }
      ],
      "name": "setWinner",
      "outputs": [],
      "payable": false,
      "stateMutability": "nonpayable",
      "type": "function",
      "signature": "0x9c623683"
    },
    {
      "constant": true,
      "inputs": [
        {
          "name": "_gameID",
          "type": "uint256"
        }
      ],
      "name": "getGame",
      "outputs": [
        {
          "name": "",
          "type": "uint8"
        },
        {
          "name": "",
          "type": "address"
        },
        {
          "name": "",
          "type": "address"
        },
        {
          "name": "",
          "type": "bytes"
        },
        {
          "name": "",
          "type": "bytes"
        },
        {
          "name": "",
          "type": "uint256"
        },
        {
          "name": "",
          "type": "uint256"
        }
      ],
      "payable": false,
      "stateMutability": "view",
      "type": "function",
      "signature": "0xa2f77bcc"
    },
    {
      "constant": true,
      "inputs": [
        {
          "name": "_gameID",
          "type": "uint256"
        }
      ],
      "name": "getWinner",
      "outputs": [
        {
          "name": "",
          "type": "address"
        }
      ],
      "payable": false,
      "stateMutability": "view",
      "type": "function",
      "signature": "0x4129b2c9"
    },
    {
      "constant": true,
      "inputs": [
        {
          "name": "_gameID",
          "type": "uint256"
        }
      ],
      "name": "getStatus",
      "outputs": [
        {
          "name": "",
          "type": "uint8"
        }
      ],
      "payable": false,
      "stateMutability": "view",
      "type": "function",
      "signature": "0x5c622a0e"
    },
    {
      "constant": true,
      "inputs": [
        {
          "name": "_address",
          "type": "address"
        }
      ],
      "name": "getEarnings",
      "outputs": [
        {
          "name": "",
          "type": "int256"
        }
      ],
      "payable": false,
      "stateMutability": "view",
      "type": "function",
      "signature": "0x131b9c04"
    }
  ],
  "bytecode": "0x608060405234801561001057600080fd5b506040516020806117e3833981016040525160008054600160a060020a0319908116331790915560018054600160a060020a03909316929091169190911790556117848061005f6000396000f3006080604052600436106100da5763ffffffff7c0100000000000000000000000000000000000000000000000000000000600035041663117a5b9081146100df578063131b9c041461023b5780632e1a7d4d1461026e57806330d30360146102885780634129b2c91461037f57806347a28618146103b3578063543fd313146103ca5780635c622a0e146103eb5780638da5cb5b146104195780639c6236831461042e578063a2f77bcc14610452578063b24fd5c514610595578063b8843798146105aa578063fb632b7c146105bd578063fd22a6cf146105d2575b600080fd5b3480156100eb57600080fd5b506100f76004356105ea565b604051808981526020018860ff1660ff16815260200187600160a060020a0316600160a060020a0316815260200186600160a060020a0316600160a060020a0316815260200185600160a060020a0316600160a060020a031681526020018060200180602001848152602001838103835286818151815260200191508051906020019080838360005b83811015610198578181015183820152602001610180565b50505050905090810190601f1680156101c55780820380516001836020036101000a031916815260200191505b50838103825285518152855160209182019187019080838360005b838110156101f85781810151838201526020016101e0565b50505050905090810190601f1680156102255780820380516001836020036101000a031916815260200191505b509a505050505050505050505060405180910390f35b34801561024757600080fd5b5061025c600160a060020a0360043516610764565b60408051918252519081900360200190f35b34801561027a57600080fd5b5061028660043561077f565b005b34801561029457600080fd5b5060408051602060046024803582810135848102808701860190975280865261035e9684359636966044959194909101929182918501908490808284375050604080516020601f89358b018035918201839004830284018301909452808352979a99988101979196509182019450925082915084018382808284375050604080516020601f89358b018035918201839004830284018301909452808352979a999881019791965091820194509250829150840183828082843750949750610a339650505050505050565b60408051928352600160a060020a0390911660208301528051918290030190f35b34801561038b57600080fd5b50610397600435610eb7565b60408051600160a060020a039092168252519081900360200190f35b610286600480359060248035908101910135610ef0565b3480156103d657600080fd5b5061025c600160a060020a0360043516611046565b3480156103f757600080fd5b50610403600435611058565b6040805160ff9092168252519081900360200190f35b34801561042557600080fd5b50610397611086565b34801561043a57600080fd5b50610286600435600160a060020a0360243516611095565b34801561045e57600080fd5b5061046a600435611164565b604051808860ff1660ff16815260200187600160a060020a0316600160a060020a0316815260200186600160a060020a0316600160a060020a031681526020018060200180602001858152602001848152602001838103835287818151815260200191508051906020019080838360005b838110156104f35781810151838201526020016104db565b50505050905090810190601f1680156105205780820380516001836020036101000a031916815260200191505b50838103825286518152865160209182019188019080838360005b8381101561055357818101518382015260200161053b565b50505050905090810190601f1680156105805780820380516001836020036101000a031916815260200191505b50995050505050505050505060405180910390f35b3480156105a157600080fd5b506103976113a9565b61028660048035602481019101356113b8565b3480156105c957600080fd5b5061025c6115e7565b3480156105de57600080fd5b5061025c6004356115ed565b60028054829081106105f857fe5b60009182526020918290206007909102018054600180830154600280850154600386015460048701805460408051601f600019998416156101009081029a909a01909316969096049182018b90048b0286018b01905280855296995060ff851698600160a060020a039690950486169792861696919095169491938301828280156106c45780601f10610699576101008083540402835291602001916106c4565b820191906000526020600020905b8154815290600101906020018083116106a757829003601f168201915b5050505060058301805460408051602060026001851615610100026000190190941693909304601f81018490048402820184019092528181529495949350908301828280156107545780601f1061072957610100808354040283529160200191610754565b820191906000526020600020905b81548152906001019060200180831161073757829003601f168201915b5050505050908060060154905088565b600160a060020a031660009081526004602052604090205490565b600060028281548110151561079057fe5b600091825260209091206007909102016001015460ff166002146107b357600080fd5b60036002838154811015156107c457fe5b60009182526020822060079190910201600101805460ff191660ff939093169290921790915560028054849081106107f857fe5b60009182526020909120600790910201600101546101009004600160a060020a0316141561098557600280548390811061082e57fe5b9060005260206000209060070201600601549050806004600060028581548110151561085657fe5b600091825260208083206002600790930201820154600160a060020a031684528301939093526040909101812080549093019092558054839260049290918690811061089e57fe5b6000918252602080832060036007909302019190910154600160a060020a0316835282019290925260400190208054909101905560028054839081106108e057fe5b60009182526020822060026007909202010154604051600160a060020a039091169183156108fc02918491818181858888f19350505050158015610928573d6000803e3d6000fd5b50600280548390811061093757fe5b60009182526020822060036007909202010154604051600160a060020a039091169183156108fc02918491818181858888f1935050505015801561097f573d6000803e3d6000fd5b50610a2f565b600280543391908490811061099657fe5b60009182526020909120600790910201600101546101009004600160a060020a0316146109c257600080fd5b60028054839081106109d057fe5b6000918252602080832060066007909302019190910154338084526004909252604080842080546002909302928301905551909350909183156108fc02918491818181858888f19350505050158015610a2d573d6000803e3d6000fd5b505b5050565b6000806000806000806000808a516002141515610a4f57600080fd5b896040516020018080602001828103825283818151815260200191508051906020019080838360005b83811015610a90578181015183820152602001610a78565b50505050905090810190601f168015610abd5780820380516001836020036101000a031916815260200191505b50925050506040516020818303038152906040526040518082805190602001908083835b60208310610b005780518252601f199092019160209182019101610ae1565b6001836020036101000a03801982511681845116808217855250505050505090500191505060405180910390209450886040516020018080602001828103825283818151815260200191508051906020019080838360005b83811015610b70578181015183820152602001610b58565b50505050905090810190601f168015610b9d5780820380516001836020036101000a031916815260200191505b50925050506040516020818303038152906040526040518082805190602001908083835b60208310610be05780518252601f199092019160209182019101610bc1565b51815160209384036101000a6000190180199092169116179052604080519290940182900382208282018290526004838601527f726f636b00000000000000000000000000000000000000000000000000000000606080850191909152855180850390910181526080909301948590528251909a509195509293508392850191508083835b60208310610c845780518252601f199092019160209182019101610c65565b51815160209384036101000a6000190180199092169116179052604080519290940182900382208282018290526005838601527f70617065720000000000000000000000000000000000000000000000000000006060808501919091528551808503909101815260809093019485905282519099509195509293508392850191508083835b60208310610d285780518252601f199092019160209182019101610d09565b51815160209384036101000a6000190180199092169116179052604080519290940182900382208282018290526008838601527f73636973736f72730000000000000000000000000000000000000000000000006060808501919091528551808503909101815260809093019485905282519098509195509293508392850191508083835b60208310610dcc5780518252601f199092019160209182019101610dad565b5181516020939093036101000a600019018019909116921691909117905260405192018290039091209350505083861490508015610e0957508381145b80610e1d57508482148015610e1d57508383145b80610e3157508481148015610e3157508382145b15610e56578a6000815181101515610e4557fe5b906020019060200201519550610ea5565b8483148015610e6457508382145b80610e7857508482148015610e7857508381145b80610e8c57508481148015610e8c57508383145b15610ea0578a6001815181101515610e4557fe5b600095505b50999a93995092975050505050505050565b6000600282815481101515610ec857fe5b60009182526020909120600790910201600101546101009004600160a060020a031692915050565b600280546000919085908110610f0257fe5b6000918252602090912060036007909202010154600160a060020a031614610f2957600080fd5b34600284815481101515610f3957fe5b906000526020600020906007020160060154141515610f5757600080fd5b33600284815481101515610f6757fe5b906000526020600020906007020160030160006101000a815481600160a060020a030219169083600160a060020a031602179055508181600285815481101515610fad57fe5b90600052602060002090600702016005019190610fcb92919061160c565b506001600284815481101515610fdd57fe5b60009182526020808320600792909202909101600101805460ff191660ff94909416939093179092553380825260049092526040808220805434900390555185917f94a23cd53bf5ba1d2903ed9a1cd6418ae0d681ab5bbae27df124f57f70a9b62791a3505050565b60046020526000908152604090205481565b600060028281548110151561106957fe5b600091825260209091206007909102016001015460ff1692915050565b600054600160a060020a031681565b600154600160a060020a031633146110ac57600080fd5b600280838154811015156110bc57fe5b906000526020600020906007020160010160006101000a81548160ff021916908360ff160217905550806002838154811015156110f557fe5b60009182526020822060079190910201600101805474ffffffffffffffffffffffffffffffffffffffff001916610100600160a060020a03948516021790556040519183169184917f6b5936f5be80114e7a91daf84ba4886ece975aaffac48c9609cfa022d74a8a7d91a35050565b600080600060608060008060028881548110151561117e57fe5b60009182526020909120600160079092020101546002805460ff909216918a9081106111a657fe5b6000918252602090912060026007909202018101548154600160a060020a0390911691908b9081106111d457fe5b600091825260209091206003600790920201015460028054600160a060020a03909216918c90811061120257fe5b906000526020600020906007020160040160028c81548110151561122257fe5b906000526020600020906007020160050160028d81548110151561124257fe5b90600052602060002090600702016006015460028e81548110151561126357fe5b600091825260209182902060079091020154845460408051601f6002600019610100600187161502019094169390930492830185900485028101850190915281815291928691908301828280156112fb5780601f106112d0576101008083540402835291602001916112fb565b820191906000526020600020905b8154815290600101906020018083116112de57829003601f168201915b5050865460408051602060026001851615610100026000190190941693909304601f8101849004840282018401909252818152959950889450925084019050828280156113895780601f1061135e57610100808354040283529160200191611389565b820191906000526020600020905b81548152906001019060200180831161136c57829003601f168201915b505050505092509650965096509650965096509650919395979092949650565b600154600160a060020a031681565b6113c061168a565b6003548152336060820152604080516020601f85018190048102820181019092528381529084908490819084018382808284375050505060a0840192835250503460e08301819052336000908152600460209081526040808320805494909403909355600280546001810180835591909352855160079093027f405787fa12a823e0f2b7631cc41b3ba8828b3321ca811111fa75cd3aa3bb5ace8101938455828701517f405787fa12a823e0f2b7631cc41b3ba8828b3321ca811111fa75cd3aa3bb5acf8201805496890151600160a060020a039081166101000274ffffffffffffffffffffffffffffffffffffffff001960ff90941660ff1990991698909817929092169690961790955560608701517f405787fa12a823e0f2b7631cc41b3ba8828b3321ca811111fa75cd3aa3bb5ad08201805491871673ffffffffffffffffffffffffffffffffffffffff1992831617905560808801517f405787fa12a823e0f2b7631cc41b3ba8828b3321ca811111fa75cd3aa3bb5ad1830180549190971691161790945593518051869461157f937f405787fa12a823e0f2b7631cc41b3ba8828b3321ca811111fa75cd3aa3bb5ad29091019201906116cd565b5060c0820151805161159b9160058401916020909101906116cd565b5060e09190910151600690910155506003805460010190819055604051349133917f5292556e90822a7fc94f35a5a9ddf041b63df40f0eb7682483871615c02bb5ad90600090a4505050565b60035481565b60058054829081106115fb57fe5b600091825260209091200154905081565b828054600181600116156101000203166002900490600052602060002090601f016020900481019282601f1061164d5782800160ff1982351617855561167a565b8280016001018555821561167a579182015b8281111561167a57823582559160200191906001019061165f565b5061168692915061173b565b5090565b604080516101008101825260008082526020820181905291810182905260608082018390526080820183905260a0820181905260c082015260e081019190915290565b828054600181600116156101000203166002900490600052602060002090601f016020900481019282601f1061170e57805160ff191683800117855561167a565b8280016001018555821561167a579182015b8281111561167a578251825591602001919060010190611720565b61175591905b808211156116865760008155600101611741565b905600a165627a7a7230582058e750afc0a88c62df5007f9b6dfcff9d128c4cb681d9f6fd1fbdd6d54c42f580029",
  "source": "pragma solidity 0.4.24;\n\ncontract RockPaperScissors {\n  address public owner;\n  address public enigma;\n\n  struct Game {\n    uint gameId;\n    uint8 status;\n    address winner;\n    address player1;\n    address player2;\n    bytes player1Move;\n    bytes player2Move;\n    uint256 bet;\n  }\n\n  //mapping(bytes32 => uint8) public results;\n  Game[] public games;\n  uint public gamesCount;\n  mapping(address => int256) public earnings;\n  bytes32[] public openGames;\n\n  // Constructor called when new contract is deployed\n  constructor(address _enigmaAddress) public {\n    owner = msg.sender;\n    enigma = _enigmaAddress;\n  }\n\n  //Create new game, pass bet and encrypted move\n  function newGame(bytes _move)\n  payable\n  external {\n    Game memory game;\n    game.gameId = gamesCount;\n    game.player1 = msg.sender;\n    game.player1Move = _move;\n    game.bet = msg.value;\n    earnings[msg.sender] -= int256(msg.value);\n    games.push(game);\n    gamesCount++;\n    emit NewGame(gamesCount, msg.sender, msg.value);\n  }\n\n  //Join an open game\n  function joinGame(uint _gameID, bytes _move)\n  payable\n  external {\n    require(games[_gameID].player2 == address(0));\n    require(games[_gameID].bet == msg.value);\n    games[_gameID].player2 = msg.sender;\n    games[_gameID].player2Move = _move;\n    games[_gameID].status = 1;\n    earnings[msg.sender] -= int256(msg.value);\n    emit JoinGame(_gameID, msg.sender);\n  }\n\n  //Withdraw winnings\n  function withdraw(uint _gameID)\n  external{\n    require(games[_gameID].status == 2);\n    games[_gameID].status = 3;\n    uint winnings;\n    if(games[_gameID].winner == address(0)){\n      winnings = games[_gameID].bet; //Since no winner, return bets\n      earnings[games[_gameID].player1] += int256(winnings);\n      earnings[games[_gameID].player2] += int256(winnings);\n      games[_gameID].player1.transfer(winnings);\n      games[_gameID].player2.transfer(winnings);\n    } else {\n      require(games[_gameID].winner == msg.sender);\n      winnings = games[_gameID].bet*2; //Return the bet amount from both users\n      earnings[msg.sender] += int256(winnings);\n      msg.sender.transfer(winnings);\n    }\n  }\n\n  //Callable  function\n  function calculateWinner(uint _gameID, address[] _players, string _move1, string _move2)\n  public\n  pure\n  returns(uint, address){\n    require(_players.length == 2);\n    address winner;\n    bytes32 move1 = keccak256(abi.encode(_move1));\n    bytes32 move2 = keccak256(abi.encode(_move2));\n    bytes32 rock = keccak256(abi.encode('rock'));\n    bytes32 paper =  keccak256(abi.encode('paper'));\n    bytes32 scissors = keccak256(abi.encode('scissors'));\n\n    if(\n      (move1 == rock && move2 == scissors) ||\n      (move1 == paper && move2 == rock) ||\n      (move1 == scissors && move2 == paper)\n    ){\n      winner = _players[0];\n    }else if(\n      (move1 == rock && move2 == paper) ||\n      (move1 == paper && move2 == scissors) ||\n      (move1 == scissors && move2 == rock)\n    ){\n      winner = _players[1];\n    }else{\n      winner = address(0);\n    }\n    return (_gameID, winner);\n  }\n\n  //Callback function\n  function setWinner(uint _gameID, address _address) public onlyEnigma() {\n    games[_gameID].status = 2;\n    games[_gameID].winner = _address;\n    emit Winner(_gameID, _address);\n  }\n\n  function getGame(uint _gameID)\n  external\n  view\n  returns(uint8, address, address, bytes, bytes, uint256, uint){\n    return (games[_gameID].status,\n            games[_gameID].player1,\n            games[_gameID].player2,\n            games[_gameID].player1Move,\n            games[_gameID].player2Move,\n            games[_gameID].bet,\n            games[_gameID].gameId\n    );\n  }\n\n  function getWinner(uint _gameID)\n  external\n  view\n  returns(address){\n    return games[_gameID].winner;\n  }\n\n  function getStatus(uint _gameID)\n  external\n  view\n  returns(uint8){\n    return games[_gameID].status;\n  }\n\n  function getEarnings(address _address)\n  external\n  view\n  returns(int256){\n    return earnings[_address];\n  }\n\n  // Modifier to ensure only enigma contract can call function\n  modifier onlyEnigma() {\n    require(msg.sender == enigma);\n    _;\n  }\n\n  // Event emitted upon callback completion; watched from front end\n  event Winner(uint indexed gameID, address indexed winner);\n  event NewGame(uint indexed gameID, address indexed player1, uint256 indexed bet);\n  event JoinGame(uint indexed gameID, address indexed player2);\n}\n",
  "sourcePath": "/Users/adityapalepu/Startups/enigma/Enigma-Rock-Paper-Scissors/contracts/RockPaperScissors.sol",
  "compiler": {
    "name": "solc",
    "version": "0.4.24+commit.e67f0147.Emscripten.clang"
  },
  "schemaVersion": "2.0.0",
  "updatedAt": "2019-01-08T22:11:50.096Z"
}